:100000000C9463000C948B000C948B000C948B006C
:100010000C948B000C948B000C948B000C948B0034
:100020000C948B000C948B000C948B000C948B0024
:100030000C948B000C948B000C948B000C948B0014
:100040000C946A050C948B000C94CA020C94FC026C
:100050000C948B000C948B000C948B000C948B00F4
:100060000C948B000C948B0000000008000201002F
:100070000003040700000000000000000102040863
:100080001020408001020408102001020408102002
:10009000040404040404040402020202020203032E
:1000A00003030303000000002300260029000000D2
:1000B0000000250028002B0000000000240027007D
:1000C0002A007B012C0311241FBECFEFD8E0DEBF36
:1000D000CDBF11E0A0E0B1E0EEE7FEE002C0059088
:1000E0000D92A83AB107D9F722E0A8EAB1E001C021
:1000F0001D92A936B207E1F710E0C3E6D0E004C0D4
:100100002197FE010E943707C136D107C9F70E9427
:100110005B050C943D070C94000026E040E855E296
:1001200060E070E083EC91E00E94680261E08BE0A7
:100130000E94810661E08AE00E94810660E088E01A
:100140000E94810660E089E00E94810620E042E092
:1001500060E18BEA91E00E94200440E060E08BEADD
:1001600091E00E94070460E071E08BEA91E00E9458
:100170001E0541E060E08BEA91E00E9407046FE019
:1001800071E08BEA91E00E941E0560ED77E080E06F
:1001900090E00C94D90569E171E083EC91E00E9454
:1001A000310568EE73E080E090E00E94D90563E2DB
:1001B00071E083EC91E00E94310568EE73E080E02D
:1001C00090E00E94D9056CE371E083EC91E00E941D
:1001D000310564E670E080E090E00E94D9056AE1B4
:1001E00083EC91E00E94480568EE73E080E090E0C7
:1001F0000C94D90588E00E94EB0621E0892B09F4D4
:1002000020E02093AA0189E00E94EB0621E0892BDF
:1002100009F420E02093A90164E670E080E090E01A
:100220000E94D9058091AA018823C1F18091A9017A
:100230008823A1F18BEA91E00E94000440E060E095
:100240008BEA91E00E94070466E571E08BEA91E099
:100250000E941E0541E060E08BEA91E00E940704E5
:1002600065E671E08BEA91E00E941E0561E08BE09B
:100270000E94BD0661E08AE00E94BD068091A8014F
:10028000811138C068EE73E080E090E00E94D905EB
:100290000E94CB0081E08093A80108951092A801EC
:1002A0008BEA91E00E94000440E060E08BEA91E07C
:1002B0000E94070464E771E08BEA91E00E941E054A
:1002C00041E060E08BEA91E00E9407046DE771E095
:1002D0008BEA91E00E941E0560E08BE00E94BD0663
:1002E00060E08AE00E94BD0664EF71E080E090E08B
:1002F0000C94D9050895CF92EF920F9387E0C82E02
:1003000096E0E92E05E024E043E062E08BEA91E02C
:100310000E94BC040F91EF90CF900895FC01918D45
:10032000228D892F90E0805C9F4F821B91098F73F3
:1003300099270895FC01918D828D981731F0828D57
:10034000E80FF11D858D90E008958FEF9FEF0895E0
:10035000FC01918D828D981761F0A28DAE0FBF2F99
:10036000B11D5D968C91928D9F5F9F73928F90E0EF
:1003700008958FEF9FEF0895FC01538D448D252F35
:1003800030E0842F90E0821B930B541710F0CF962F
:1003900008950197089582E293E0892B49F080E067
:1003A00090E0892B29F00E94220381110C94000017
:1003B0000895FC01A48DA80FB92FB11DA35ABF4FFA
:1003C0002C91848D90E001968F739927848FA68954
:1003D000B7892C93A089B1898C91837080648C93A8
:1003E000938D848D981306C00288F389E02D808157
:1003F0008F7D80830895CF93DF93EC01888D8823D0
:10040000B9F0AA89BB89E889F9898C9185FD03C077
:10041000808186FD0DC00FB607FCF7CF8C9185FF5C
:10042000F2CF808185FFEDCFCE010E94D901E9CFC7
:10043000DF91CF910895EF92FF920F931F93CF9387
:10044000DF93EC0181E0888F9B8D8C8D98131AC00F
:10045000E889F989808185FF15C09FB7F894EE89F6
:10046000FF896083E889F989808183708064808353
:100470009FBF81E090E0DF91CF911F910F91FF909E
:10048000EF900895F62E0B8D10E00F5F1F4F0F7346
:100490001127E02E8C8D8E110CC00FB607FCFACF01
:1004A000E889F989808185FFF5CFCE010E94D901C5
:1004B000F1CFEB8DEC0FFD2FF11DE35AFF4FF082D2
:1004C0009FB7F8940B8FEA89FB8980818062CFCF38
:1004D000CF92DF92EF92FF921F93CF93DF93EC01C5
:1004E0006A017B01122FE889F98982E08083C114B7
:1004F00081EED806E104F104A1F060E079E08DE33B
:1005000090E0A70196010E94150721503109410989
:1005100051095695479537952795211580E138075C
:1005200098F0E889F989108260E874E88EE190E03B
:10053000A70196010E94150721503109410951096F
:100540005695479537952795EC85FD853083EE8543
:10055000FF852083188EEC89FD891083EA89FB8949
:10056000808180618083EA89FB89808188608083C3
:10057000EA89FB89808180688083EA89FB898081A0
:100580008F7D8083DF91CF911F91FF90EF90DF905F
:10059000CF9008951F920F920FB60F9211242F93B0
:1005A0008F939F93EF93FF93E091D301F091D40148
:1005B0008081E091D901F091DA0182FD1BC0908128
:1005C0008091DC018F5F8F732091DD01821741F0F4
:1005D000E091DC01F0E0ED53FE4F958F8093DC015C
:1005E000FF91EF919F918F912F910F900FBE0F90E0
:1005F0001F9018958081F4CF1F920F920FB60F9223
:1006000011242F933F934F935F936F937F938F9317
:100610009F93AF93BF93EF93FF9383EC91E00E947E
:10062000D901FF91EF91BF91AF919F918F917F91F0
:100630006F915F914F913F912F910F900FBE0F904F
:100640001F90189583EC91E00E948E0121E0892B88
:1006500009F420E0822F0895E3ECF1E01382128286
:1006600088EE93E0A0E0B0E084839583A683B7830F
:100670008AE891E09183808385EC90E09587848778
:1006800084EC90E09787868780EC90E0918B808B5C
:1006900081EC90E0938B828B82EC90E0958B848B45
:1006A00086EC90E0978B868B118E128E138E148EB3
:1006B000089590E080E008950895CF93DF93EC01D2
:1006C00060E08E810E94BD0681E090E00E941206EB
:1006D00061E08E810E94BD0681E090E00E941206DA
:1006E00060E08E810E94BD0684E690E0DF91CF91AC
:1006F0000C941206CF92DF92EF92FF920F931F930A
:10070000CF93DF936C017C0187E0E80EF11CD0E011
:10071000C0E0062F10E0B8010C2E02C07595679559
:100720000A94E2F76170F70181917F010E94BD0692
:100730002196C430D10579F7C601DF91CF911F9181
:100740000F91FF90EF90DF90CF900C945D03CF92CC
:10075000DF92EF92FF920F931F93CF93DF936C0181
:100760007C0187E0E80EF11CD0E0C0E0062F10E02D
:10077000B8010C2E02C0759567950A94E2F7617076
:10078000F70181917F010E94BD062196C830D105F5
:1007900079F7C601DF91CF911F910F91FF90EF90F4
:1007A000DF90CF900C945D031F93CF93DF93EC0108
:1007B000162F642F8C810E94BD068D818F3F19F00A
:1007C00060E00E94BD068F85612F84FF06C0CE01C8
:1007D000DF91CF911F910C94A70370E084E0759591
:1007E00067958A95E1F7CE010E947A03612FCE01C9
:1007F000DF91CF911F910C947A0340E00C94D403C5
:1008000061E00E94FD0380ED97E00C9412064430F5
:1008100008F043E0FC012389421710F04FEF420F2C
:10082000FC01E40FF11D2489620F60680C94FD0344
:10083000FC016089262F2460208B6C600C94FD03E2
:100840000F931F93CF93DF93EC01423018F08F8505
:1008500088608F874B8B1C8A80E48D8B6E8B605CED
:100860006F8B222329F0413019F48F8584608F87A4
:1008700061E08C810E9481068D818F3F19F061E0DB
:100880000E94810661E08E810E9481068E0198019E
:100890002C1B3D0B8F8584FD0DC084E090E00F5F25
:1008A0001F4F281739074CF461E0F80186810E9438
:1008B0008106EDCF88E090E0F2CF80E593EC0E94D6
:1008C000120660E08C810E94BD0660E08E810E946D
:1008D000BD068D818F3F19F060E00E94BD066F85D7
:1008E00064FD33C063E0CE010E947A0384E991E1A4
:1008F0000E94120663E0CE010E947A0384E991E12E
:100900000E94120663E0CE010E947A0386E990E01D
:100910000E94120662E0CE010E947A036F85606237
:10092000CE010E94FD0384E0888BCE010E94180452
:10093000CE010E94000482E0898B66E0CE01DF9147
:10094000CF911F910F910C94FD036062CE010E9424
:10095000FD0384E991E10E9412066F856062CE0179
:100960000E94FD0386E990E00E9412066F85606296
:10097000CE010E94FD03D2CFCF92EF920F93FC01E4
:10098000138212828CE991E09183808364838FEFDC
:100990008583468327830087E186C2861386148673
:1009A00015861686178620E041E060E1CF010F91A1
:1009B000EF90CF900C94200441E00E94D40381E09A
:1009C00090E00895AF92BF92CF92DF92EF92FF92A4
:1009D0000F931F93CF93DF936C017B018B01040F67
:1009E000151FEB015E01AE18BF08C017D10759F003
:1009F0006991D601ED91FC910190F081E02DC60145
:100A00000995892B79F7C501DF91CF911F910F913E
:100A1000FF90EF90DF90CF90BF90AF900895FB01D3
:100A200001900020E9F73197AF01461B570BDC011D
:100A3000ED91FC910280F381E02D0994611571051F
:100A400011F00C940F0590E080E00895DC01ED9129
:100A5000FC910190F081E02D099464EA71E00C941E
:100A60000F050F931F93CF93DF938C01D0E0C0E06D
:100A70006115710519F00E940F05EC01C8010E9473
:100A80002D058C0F9D1FDF91CF911F910F91089520
:100A90000F931F93CF93DF93EC010E9426058C01E7
:100AA000CE010E942D05800F911FDF91CF911F91E4
:100AB0000F91089508950E941D060E945A050E94F4
:100AC0008D00CBECD1E00E94FA002097E1F30E9468
:100AD000CB01F9CF1F920F920FB60F9211242F93D3
:100AE0003F938F939F93AF93BF93809161029091B7
:100AF0006202A0916302B09164023091600223E02F
:100B0000230F2D3758F50196A11DB11D20936002CA
:100B10008093610290936202A0936302B093640297
:100B20008091650290916602A0916702B09168027F
:100B30000196A11DB11D8093650290936602A0935A
:100B40006702B0936802BF91AF919F918F913F91DF
:100B50002F910F900FBE0F901F90189526E8230F2E
:100B60000296A11DB11DD2CF3FB7F89480916502C6
:100B700090916602A0916702B091680226B5A89B89
:100B800005C02F3F19F00196A11DB11D3FBFBA2F1F
:100B9000A92F982F8827BC01CD01620F711D811DDF
:100BA000911D42E0660F771F881F991F4A95D1F764
:100BB00008958F929F92AF92BF92CF92DF92EF9261
:100BC000FF926B017C010E94B4054B015C01C114D2
:100BD000D104E104F104E9F00E9414070E94B40575
:100BE000681979098A099B09683E73408105910556
:100BF00070F321E0C21AD108E108F10888EE880EEE
:100C000083E0981EA11CB11CC114D104E104F104BD
:100C100029F7FF90EF90DF90CF90BF90AF909F901B
:100C20008F9008958230910538F0880F991F880FB2
:100C3000991F05970197F1F70895789484B582601C
:100C400084BD84B5816084BD85B5826085BD85B570
:100C5000816085BDEEE6F0E0808181608083E1E81F
:100C6000F0E0108280818260808380818160808357
:100C7000E0E8F0E0808181608083E1EBF0E080815A
:100C800084608083E0EBF0E0808181608083EAE72C
:100C9000F0E08081846080838081826080838081B5
:100CA000816080838081806880831092C100089574
:100CB000833081F028F4813099F08230A9F00895D2
:100CC0008730A9F08830C9F08430B1F48091800079
:100CD0008F7D03C0809180008F778093800008957E
:100CE00084B58F7784BD089584B58F7DFBCF8091C7
:100CF000B0008F778093B00008958091B0008F7D11
:100D0000F9CFCF93DF9390E0FC01E458FF4F24919B
:100D100080579F4FFC0184918823C9F090E0880F91
:100D2000991FFC01E854FF4FA591B491FC01E255D5
:100D3000FF4FC591D49161110DC09FB7F8948C916C
:100D4000209582238C938881282328839FBFDF915D
:100D5000CF910895623051F49FB7F8943C91822F5F
:100D6000809583238C93E8812E2BEFCF8FB7F89457
:100D7000EC912E2B2C938FBFEACF1F93CF93DF9351
:100D8000282F30E0F901E859FF4F8491F901E45828
:100D9000FF4FD491F901E057FF4FC491CC23A9F044
:100DA000162F81110E945806EC2FF0E0EE0FFF1F66
:100DB000E255FF4FA591B4918FB7F894EC911111C2
:100DC00008C0D095DE23DC938FBFDF91CF911F91B8
:100DD0000895DE2BF8CFCF93DF93282F30E0F90171
:100DE000E859FF4F8491F901E458FF4FD491F9017C
:100DF000E057FF4FC491CC23A1F081110E94580607
:100E0000EC2FF0E0EE0FFF1FEC55FF4FA591B491D2
:100E1000EC91ED2381E090E009F480E0DF91CF9147
:100E2000089580E090E0FACF0895A1E21A2EAA1B5F
:100E3000BB1BFD010DC0AA1FBB1FEE1FFF1FA2178A
:100E4000B307E407F50720F0A21BB30BE40BF50B87
:100E5000661F771F881F991F1A9469F76095709510
:100E6000809590959B01AC01BD01CF010895EE0FD7
:0E0E7000FF1F0590F491E02D0994F894FFCF38
:100E7E004669726520444554454354494F4E0020FF
:100E8E00202053595354454D0041542B434D474652
:100E9E003D310041542B434D47533D222B393732C0
:100EAE00353937373736383430220D00466972659A
:100EBE0020446574656374656420696E7369646546
:100ECE0020686F6D650046697265204465746563C0
:100EDE00746564210053656E64696E67206D736777
:100EEE002E2E2E0046697265204E6F740044657476
:100EFE00656374656400000000001B02E204BC011F
:100F0E00FB018E01A8019A0100000000DC04E2043E
:080F1E0059035C030D0A0000F9
:00000001FF
